{
  "_format": "hh3-artifact-1",
  "contractName": "SimpleStorage",
  "sourceName": "contracts/SimpleStorage.sol",
  "abi": [
    {
      "inputs": [],
      "name": "getMyNumber",
      "outputs": [
        {
          "internalType": "uint256",
          "name": "",
          "type": "uint256"
        }
      ],
      "stateMutability": "view",
      "type": "function"
    },
    {
      "inputs": [
        {
          "internalType": "uint256",
          "name": "_myNumber",
          "type": "uint256"
        }
      ],
      "name": "setMyNumber",
      "outputs": [],
      "stateMutability": "nonpayable",
      "type": "function"
    }
  ],
  "bytecode": "0x6080604052348015600e575f5ffd5b5060a580601a5f395ff3fe6080604052348015600e575f5ffd5b50600436106030575f3560e01c80636ffd773c146034578063b32e737f146045575b5f5ffd5b6043603f3660046059565b5f55565b005b5f5460405190815260200160405180910390f35b5f602082840312156068575f5ffd5b503591905056fea264697066735822122012b6badbc976e6f9fecabbb2b405602290b8efd31351279e560c033fd8f099e464736f6c634300081c0033",
  "linkReferences": {},
  "deployedLinkReferences": {},
  "immutableReferences": {},
  "inputSourceName": "project/contracts/SimpleStorage.sol",
  "buildInfoId": "solc-0_8_28-cd4190cd7e81ec8c95d3c99f6b3f7438d16e3e5e"
}